{
  "contractName": "DistributionAsset",
  "abi": [
    {
      "constant": true,
      "inputs": [
        {
          "name": "",
          "type": "uint256"
        }
      ],
      "name": "tokensTime",
      "outputs": [
        {
          "name": "",
          "type": "uint256"
        }
      ],
      "payable": false,
      "stateMutability": "view",
      "type": "function"
    },
    {
      "constant": true,
      "inputs": [
        {
          "name": "",
          "type": "address"
        }
      ],
      "name": "views",
      "outputs": [
        {
          "name": "",
          "type": "uint256"
        }
      ],
      "payable": false,
      "stateMutability": "view",
      "type": "function"
    },
    {
      "constant": false,
      "inputs": [
        {
          "name": "distributor",
          "type": "address"
        }
      ],
      "name": "addDistributor",
      "outputs": [],
      "payable": false,
      "stateMutability": "nonpayable",
      "type": "function"
    },
    {
      "constant": true,
      "inputs": [
        {
          "name": "",
          "type": "uint256"
        }
      ],
      "name": "tokensDistributor",
      "outputs": [
        {
          "name": "",
          "type": "address"
        }
      ],
      "payable": false,
      "stateMutability": "view",
      "type": "function"
    },
    {
      "constant": true,
      "inputs": [],
      "name": "productionCompany",
      "outputs": [
        {
          "name": "",
          "type": "address"
        }
      ],
      "payable": false,
      "stateMutability": "view",
      "type": "function"
    },
    {
      "constant": true,
      "inputs": [
        {
          "name": "",
          "type": "address"
        }
      ],
      "name": "distributors",
      "outputs": [
        {
          "name": "",
          "type": "bool"
        }
      ],
      "payable": false,
      "stateMutability": "view",
      "type": "function"
    },
    {
      "constant": false,
      "inputs": [
        {
          "name": "distributor",
          "type": "address"
        },
        {
          "name": "token",
          "type": "uint256"
        }
      ],
      "name": "addProofOfView",
      "outputs": [],
      "payable": false,
      "stateMutability": "nonpayable",
      "type": "function"
    },
    {
      "inputs": [],
      "payable": false,
      "stateMutability": "nonpayable",
      "type": "constructor"
    }
  ],
  "bytecode": "0x6060604052341561000f57600080fd5b336000806101000a81548173ffffffffffffffffffffffffffffffffffffffff021916908373ffffffffffffffffffffffffffffffffffffffff1602179055506105318061005e6000396000f300606060405260043610610083576000357c0100000000000000000000000000000000000000000000000000000000900463ffffffff1680635a1a2139146100885780636455929f146100bf5780637250e2241461010c5780637dfb43b114610145578063c658e337146101a8578063cc642784146101fd578063e12a92c01461024e575b600080fd5b341561009357600080fd5b6100a96004808035906020019091905050610290565b6040518082815260200191505060405180910390f35b34156100ca57600080fd5b6100f6600480803573ffffffffffffffffffffffffffffffffffffffff169060200190919050506102a8565b6040518082815260200191505060405180910390f35b341561011757600080fd5b610143600480803573ffffffffffffffffffffffffffffffffffffffff169060200190919050506102c0565b005b341561015057600080fd5b6101666004808035906020019091905050610375565b604051808273ffffffffffffffffffffffffffffffffffffffff1673ffffffffffffffffffffffffffffffffffffffff16815260200191505060405180910390f35b34156101b357600080fd5b6101bb6103a8565b604051808273ffffffffffffffffffffffffffffffffffffffff1673ffffffffffffffffffffffffffffffffffffffff16815260200191505060405180910390f35b341561020857600080fd5b610234600480803573ffffffffffffffffffffffffffffffffffffffff169060200190919050506103cd565b604051808215151515815260200191505060405180910390f35b341561025957600080fd5b61028e600480803573ffffffffffffffffffffffffffffffffffffffff169060200190919080359060200190919050506103ed565b005b60036020528060005260406000206000915090505481565b60026020528060005260406000206000915090505481565b6000809054906101000a900473ffffffffffffffffffffffffffffffffffffffff1673ffffffffffffffffffffffffffffffffffffffff163373ffffffffffffffffffffffffffffffffffffffff1614151561031b57600080fd5b60018060008373ffffffffffffffffffffffffffffffffffffffff1673ffffffffffffffffffffffffffffffffffffffff16815260200190815260200160002060006101000a81548160ff02191690831515021790555050565b60046020528060005260406000206000915054906101000a900473ffffffffffffffffffffffffffffffffffffffff1681565b6000809054906101000a900473ffffffffffffffffffffffffffffffffffffffff1681565b60016020528060005260406000206000915054906101000a900460ff1681565b6000809054906101000a900473ffffffffffffffffffffffffffffffffffffffff1673ffffffffffffffffffffffffffffffffffffffff163373ffffffffffffffffffffffffffffffffffffffff1614151561044857600080fd5b600260008373ffffffffffffffffffffffffffffffffffffffff1673ffffffffffffffffffffffffffffffffffffffff16815260200190815260200160002060008154809291906001019190505550426003600083815260200190815260200160002081905550816004600083815260200190815260200160002060006101000a81548173ffffffffffffffffffffffffffffffffffffffff021916908373ffffffffffffffffffffffffffffffffffffffff16021790555050505600a165627a7a7230582076f99ff80d14d039312ab7cddb32803fd0924fc504aa755e0981c651d505b35d0029",
  "source": "pragma solidity ^0.4.17;\r\n\r\ncontract DistributionAsset {\r\n    \r\n    /*\r\n        PUB_KEY OF PRODUCTION COMPANY (e.g. Warner Brothers)\r\n    */\r\n    address public productionCompany;\r\n\r\n    /*\r\n         List of distributors\r\n    */\r\n    mapping(address => bool) public  distributors;\r\n    /*\r\n    \r\n    /*  \r\n        Views for Distributor\r\n    */\r\n    mapping(address => uint256) public views;\r\n    /*\r\n        service token - time \r\n    */\r\n    mapping(uint256 => uint256) public tokensTime;\r\n\r\n     /*\r\n        service token - distributor \r\n    */\r\n    mapping(uint256 => address) public tokensDistributor;\r\n    \r\n\r\n    /*\r\n        modifiers\r\n    */\r\n    modifier onlyProductionCompany(){\r\n        require(msg.sender == productionCompany);\r\n        _;\r\n    }\r\n    modifier onlyDistributor(){\r\n        require(distributors[msg.sender]);\r\n        _;\r\n    }\r\n\r\n    \r\n    function DistributionAsset() public {\r\n        productionCompany = msg.sender;\r\n    }\r\n\r\n    /*\r\n      add distributor to asset (e.g. Megogo)\r\n    */\r\n    function addDistributor(address distributor)  public onlyProductionCompany {\r\n        distributors[distributor] = true;\r\n    }\r\n    function addProofOfView(address distributor, uint256 token) public onlyProductionCompany {\r\n        views[distributor]++;\r\n        tokensTime[token] = now;\r\n        tokensDistributor[token] = distributor;\r\n    }\r\n\r\n}",
  "sourcePath": "D:\\Projects\\hackactons\\DRM-chain\\ethereum-contracts\\contracts\\DistributionAmount.sol",
  "compiler": {
    "name": "solc",
    "version": "0.4.18+commit.9cf6e910.Emscripten.clang"
  },
  "schemaVersion": "1.0.1",
  "updatedAt": "2018-03-24T18:32:54.491Z"
}