{
  "contractName": "Test",
  "abi": [
    {
      "constant": true,
      "inputs": [],
      "name": "counter",
      "outputs": [
        {
          "name": "",
          "type": "uint256"
        }
      ],
      "payable": false,
      "stateMutability": "view",
      "type": "function"
    },
    {
      "constant": false,
      "inputs": [],
      "name": "increase",
      "outputs": [],
      "payable": false,
      "stateMutability": "nonpayable",
      "type": "function"
    },
    {
      "inputs": [],
      "payable": false,
      "stateMutability": "nonpayable",
      "type": "constructor"
    }
  ],
  "bytecode": "0x606060405260008055341561001357600080fd5b60cb806100216000396000f3006060604052600436106049576000357c0100000000000000000000000000000000000000000000000000000000900463ffffffff16806361bc221a14604e578063e8927fbc146074575b600080fd5b3415605857600080fd5b605e6086565b6040518082815260200191505060405180910390f35b3415607e57600080fd5b6084608c565b005b60005481565b60008081548092919060010191905055505600a165627a7a723058209120094ab17c185cf8c73625cbe5ef5e7d46e5d8c5d2f749fdb5daed83a49a250029",
  "source": "pragma solidity ^0.4.17;\r\n\r\ncontract Test {\r\n    uint public counter  = 0;\r\n    function Test() public {\r\n        \r\n    }\r\n    function  increase() public {\r\n        counter++;\r\n    }\r\n}",
  "sourcePath": "D:\\Projects\\hackactons\\DRM-chain\\ethereum-contracts\\contracts\\Test.sol",
  "compiler": {
    "name": "solc",
    "version": "0.4.18+commit.9cf6e910.Emscripten.clang"
  },
  "schemaVersion": "1.0.1",
  "updatedAt": "2018-03-24T13:40:18.057Z"
}